{
  "contractName": "FoodChain",
  "abi": [
    {
      "constant": false,
      "inputs": [],
      "name": "GetTrailCount",
      "outputs": [
        {
          "internalType": "uint8",
          "name": "",
          "type": "uint8"
        }
      ],
      "payable": false,
      "stateMutability": "nonpayable",
      "type": "function"
    },
    {
      "constant": false,
      "inputs": [
        {
          "internalType": "uint256",
          "name": "locationId",
          "type": "uint256"
        },
        {
          "internalType": "string",
          "name": "name",
          "type": "string"
        },
        {
          "internalType": "string",
          "name": "secret",
          "type": "string"
        }
      ],
      "name": "AddNewLocation",
      "outputs": [],
      "payable": false,
      "stateMutability": "nonpayable",
      "type": "function"
    },
    {
      "constant": false,
      "inputs": [
        {
          "internalType": "uint8",
          "name": "trailNumber",
          "type": "uint8"
        }
      ],
      "name": "GetLocation",
      "outputs": [
        {
          "internalType": "string",
          "name": "",
          "type": "string"
        },
        {
          "internalType": "uint256",
          "name": "",
          "type": "uint256"
        },
        {
          "internalType": "uint256",
          "name": "",
          "type": "uint256"
        },
        {
          "internalType": "uint256",
          "name": "",
          "type": "uint256"
        },
        {
          "internalType": "string",
          "name": "",
          "type": "string"
        }
      ],
      "payable": false,
      "stateMutability": "nonpayable",
      "type": "function"
    }
  ],
  "bytecode": "0x60806040526000600160006101000a81548160ff021916908360ff16021790555034801561002c57600080fd5b506107128061003c6000396000f3fe608060405234801561001057600080fd5b50600436106100415760003560e01c8063988bbca314610046578063bbe42af8146101a2578063e3fd1ec2146101c6575b600080fd5b6101a06004803603606081101561005c57600080fd5b81019080803590602001909291908035906020019064010000000081111561008357600080fd5b82018360208201111561009557600080fd5b803590602001918460018302840111640100000000831117156100b757600080fd5b91908080601f016020809104026020016040519081016040528093929190818152602001838380828437600081840152601f19601f8201169050808301925050505050505091929192908035906020019064010000000081111561011a57600080fd5b82018360208201111561012c57600080fd5b8035906020019184600183028401116401000000008311171561014e57600080fd5b91908080601f016020809104026020016040519081016040528093929190818152602001838380828437600081840152601f19601f8201169050808301925050505050505091929192905050506102f1565b005b6101aa610423565b604051808260ff1660ff16815260200191505060405180910390f35b6101f5600480360360208110156101dc57600080fd5b81019080803560ff16906020019092919050505061043a565b604051808060200186815260200185815260200184815260200180602001838103835288818151815260200191508051906020019080838360005b8381101561024b578082015181840152602081019050610230565b50505050905090810190601f1680156102785780820380516001836020036101000a031916815260200191505b50838103825284818151815260200191508051906020019080838360005b838110156102b1578082015181840152602081019050610296565b50505050905090810190601f1680156102de5780820380516001836020036101000a031916815260200191505b5097505050505050505060405180910390f35b6102f9610609565b82816000018190525083816020018181525050818160800181905250428160600181815250506000600160009054906101000a900460ff1660ff161061036b57600080600160009054906101000a900460ff1660ff168152602001908152602001600020600101548160400181815250505b80600080600160009054906101000a900460ff1660ff16815260200190815260200160002060008201518160000190805190602001906103ac929190610638565b5060208201518160010155604082015181600201556060820151816003015560808201518160040190805190602001906103e7929190610638565b509050506001600081819054906101000a900460ff168092919060010191906101000a81548160ff021916908360ff1602179055505050505050565b6000600160009054906101000a900460ff16905090565b6060600080600060606000808760ff1681526020019081526020016000206000016000808860ff168152602001908152602001600020600101546000808960ff168152602001908152602001600020600201546000808a60ff168152602001908152602001600020600301546000808b60ff168152602001908152602001600020600401848054600181600116156101000203166002900480601f0160208091040260200160405190810160405280929190818152602001828054600181600116156101000203166002900480156105535780601f1061052857610100808354040283529160200191610553565b820191906000526020600020905b81548152906001019060200180831161053657829003601f168201915b50505050509450808054600181600116156101000203166002900480601f0160208091040260200160405190810160405280929190818152602001828054600181600116156101000203166002900480156105ef5780601f106105c4576101008083540402835291602001916105ef565b820191906000526020600020905b8154815290600101906020018083116105d257829003601f168201915b505050505090509450945094509450945091939590929450565b6040518060a0016040528060608152602001600081526020016000815260200160008152602001606081525090565b828054600181600116156101000203166002900490600052602060002090601f016020900481019282601f1061067957805160ff19168380011785556106a7565b828001600101855582156106a7579182015b828111156106a657825182559160200191906001019061068b565b5b5090506106b491906106b8565b5090565b6106da91905b808211156106d65760008160009055506001016106be565b5090565b9056fea265627a7a72315820cd51cf5d80cccd5a0bd91223b333b152f2fc0c833b0c395adec7e63c96e05c4c64736f6c63430005100032",
  "source": "pragma solidity ^0.5.16;\r\n\r\ncontract FoodChain\r\n{\r\n    struct Location\r\n    {\r\n        string name;\r\n        uint id;\r\n        uint prevLocId;\r\n        uint time;\r\n        string secret;\r\n    }\r\n\r\n    mapping(uint => Location) trail;\r\n    uint8 trailCount = 0;\r\n\r\n    function GetTrailCount() public returns(uint8)\r\n    {\r\n        return trailCount;\r\n    }\r\n\r\n    function AddNewLocation(uint locationId, string memory name, string memory secret) public\r\n    {\r\n        Location memory newLoc;\r\n        newLoc.name = name;\r\n        newLoc.id = locationId;\r\n        newLoc.secret = secret;\r\n        newLoc.time = now;\r\n\r\n        if (trailCount >= 0)\r\n        {\r\n            newLoc.prevLocId = trail[trailCount].id;\r\n        }\r\n\r\n        trail[trailCount] = newLoc;\r\n        trailCount++;\r\n    }\r\n\r\n    function GetLocation(uint8 trailNumber) public returns (string memory, uint, uint, uint, string memory)\r\n    {\r\n        return (trail[trailNumber].name,\r\n                trail[trailNumber].id,\r\n                trail[trailNumber].prevLocId,\r\n                trail[trailNumber].time,\r\n                trail[trailNumber].secret);\r\n    }\r\n}",
  "sourcePath": "D:\\Facultate\\AN3 SEM2 Labs\\Blockchain\\food-chain\\contracts\\FoodChain.sol",
  "compiler": {
    "name": "solc",
    "version": "0.5.16+commit.9c3226ce.Emscripten.clang"
  },
  "schemaVersion": "3.1.0",
  "updatedAt": "2020-04-22T18:41:59.023Z",
  "networkType": "ethereum",
  "devdoc": {
    "methods": {}
  },
  "userdoc": {
    "methods": {}
  }
}