{
  "contractName": "HelloWorld",
  "abi": [
    {
      "constant": false,
      "inputs": [],
      "name": "SayHello",
      "outputs": [
        {
          "internalType": "string",
          "name": "",
          "type": "string"
        }
      ],
      "payable": false,
      "stateMutability": "nonpayable",
      "type": "function"
    }
  ],
  "bytecode": "0x608060405234801561001057600080fd5b5061011d806100206000396000f3fe6080604052348015600f57600080fd5b506004361060285760003560e01c80633acb315014602d575b600080fd5b603360ab565b6040518080602001828103825283818151815260200191508051906020019080838360005b8381101560715780820151818401526020810190506058565b50505050905090810190601f168015609d5780820380516001836020036101000a031916815260200191505b509250505060405180910390f35b60606040518060400160405280600c81526020017f48656c6c6f20576f726c6421000000000000000000000000000000000000000081525090509056fea265627a7a723158206b99c8730325790c08bd79bf7b89e82f886e8e47e54357561b72695ca43cc64e64736f6c63430005100032",
  "source": "pragma solidity ^0.5.16;\r\n\r\ncontract HelloWorld\r\n{\r\n    function SayHello() public returns (string memory)\r\n    {\r\n        return \"Hello World!\";\r\n    }\r\n}\r\n",
  "sourcePath": "D:\\facultate\\AN3 SEM2 Labs\\Blockchain\\food-chain\\contracts\\HelloWorld.sol",
  "compiler": {
    "name": "solc",
    "version": "0.5.16+commit.9c3226ce.Emscripten.clang"
  },
  "schemaVersion": "3.1.0",
  "updatedAt": "2020-04-20T17:08:18.320Z",
  "networkType": "ethereum",
  "devdoc": {
    "methods": {}
  },
  "userdoc": {
    "methods": {}
  }
}